:020000040000FA
:06000000E7EF04F012001E
:020006001200E6
:08000800DACFE4FFE2CFDAFFDA
:10001000E9CFE4FFEACFE4FFF6CFE4FFF7CFE4FF58
:10002000F5CFE4FFF3CFE4FFF4CFE4FFFACFE4FF32
:1000300000EE00F0100EE80403E3EECFE4FFFBD780
:1000400000EE10F00E0EE80403E3EECFE4FFFBD762
:10005000E652F2A496D0F294060ED66E836A6AC077
:1000600082FF080E00016A5D11E16C51EA6A610FBE
:10007000E96E000EEA22EFCFE9FFEA6AE9BEEA681C
:10008000790EE926000EEA22EF5014D0040E6A5DC4
:1000900014E16C51EA6A610FE96E000EEA22EFCFBB
:1000A000E9FFEA6AE9BEEA68790EE926000EEA226B
:1000B000EF508009836E6C2B12D06B51EA6A640F8B
:1000C000E96E000EEA22EFCFE9FFEA6AE9BEEA68CC
:1000D000790EE926000EEA22EF50836E6B2B6A91AF
:1000E0006A436E5112E0690769510FE16807610EBA
:1000F000E66E000EE66E68C0E6FF2DEC01F0E552FC
:10010000E552E55200017D0E696FFF0E685D13E157
:100110008150020B03E08150040B0DE10A0E686F61
:10012000610EE66E000EE66E68C0E6FF2DEC01F093
:10013000E552E552E552FF0E0001685D13E1F292CF
:10014000686B610EE66E000EE66E68C0E6FF2DEC91
:1001500001F0E552E552E5523BEC04F081960001D6
:100160006E6B8090030E6B5D02E1010E6B6F030EF0
:100170006C5D02E1010E6C6F6A5144E1080E6A6F1A
:1001800041D0F250020B1AE000016E0517E0F29226
:1001900019EC04F000010A0E686F610EE66E000EA5
:1001A000E66E68C0E6FF2DEC01F0E552E552E5523F
:1001B0000001010E6E6F8186809024D0F050010BFB
:1001C0000AE08150080B07E00A0E0001675D03E0BA
:1001D000F090672B0CD0F050020B14E00001675137
:1001E000000810E28150080B0DE0F0926707640EE2
:1001F000E66E000EE66E67C0E6FF2DEC01F0E552FC
:10020000E552E552E55200EE1DF00E0EE80403E360
:10021000E5CFEDFFFBD700EE0FF0100EE80403E38F
:10022000E5CFEDFFFBD7E5CFFAFFE5CFF4FFE5CF54
:10023000F3FFE5CFF5FFE5CFF7FFE5CFF6FFE5CF1D
:0C024000EAFFE5CFE9FFE5CFDAFF11008F
:04024C000100060A9D
:0A0250000000790000000A00000021
:06025A00D9CFE6FFE1CF61
:10026000D9FF0A0E106E0C6EFE0EDBCF07F0F5EC18
:1002700004F00350E66E020EE76EFC0EDBCFE9FFE2
:10028000FD0EDBCFEAFFE750E926000EEA22E55239
:10029000E750EF6E0A0E106E0C6EFE0EDBCF07F00D
:1002A000F5EC04F0FE0E07C0DBFF0A0E106E0C6EBC
:1002B000FE0EDBCF07F0F5EC04F00350E66E010E06
:1002C000E76EFC0EDBCFE9FFFD0EDBCFEAFFE75068
:1002D000E926000EEA22E552E750EF6E0A0E106E94
:1002E0000C6EFE0EDBCF07F0F5EC04F00750E66E67
:1002F000FC0EDBCFE9FFFD0EDBCFEAFFE552E75056
:10030000EF6EE552E7CFD9FF1200D9CFE6FFE1CF7C
:10031000D9FFE652DF6A040EDF5C36E2FD0EDBCF6A
:1003200010F0FE0EDBCF11F00A0E0B6E0C6A10C03F
:1003300006F011C007F0C1EC04F0040ED880DF54C1
:10034000E76EFB0EDBCFE9FFFC0EDBCFEAFFE750E9
:10035000E926000EEA2202C0EFFF0A0E106E116AB3
:10036000FD0EDBCF06F0FE0EDBCF07F010C00BF06A
:1003700011C00CF0C1EC04F0FD0E06C0DBFFFE0E58
:1003800007C0DBFFDF2AC7D7FB0EDBCFE9FFFC0E80
:10039000DBCFEAFFFD0EDBCFEFFFE552E552E7CF03
:1003A000D9FF1200D9CFE6FFE1CFD9FFFD0EDBCF99
:1003B000E9FFFE0EDBCFEAFFEFCF14F0156A14BEA3
:1003C0001568640E1502F3CF15F01402F3CF14F084
:1003D000F4501526010EE76EFD0EDBCFE9FFFE0E91
:1003E000DBCFEAFFE750E926000EEA22EF500A0DC4
:1003F000F3CF16F0176A16BE176814501624126E43
:1004000015501720136E020EE76EFD0EDBCFE9FFCD
:10041000FE0EDBCFEAFFE750E926000EEA22EFCF1F
:1004200018F0196A18BE196812501824106E13506B
:100430001920116EFB0EDBCFE9FFFC0EDBCFEAFFCC
:1004400010C0EEFF11C0EDFFE552E7CFD9FF12005B
:10045000D9CFE6FFE1CFD9FFFD0EDBCFE9FFFE0EDE
:10046000DBCFEAFFEFCF16F0176A16BE1768E80E6B
:100470001702F3CF17F0030E1602F3501726E80EFB
:100480001602F3CF16F0F4501726010EE76EFD0E9C
:10049000DBCFE9FFFE0EDBCFEAFFE750E926000ED7
:1004A000EA22EF50640DF3CF18F0196A18BE1968EC
:1004B00016501824146E17501920156E020EE76E90
:1004C000FD0EDBCFE9FFFE0EDBCFEAFFE750E926AA
:1004D000000EEA22EF500A0DF3CF1AF01B6A1ABE83
:1004E0001B6814501A24126E15501B20136E030E35
:1004F000E76EFD0EDBCFE9FFFE0EDBCFEAFFE75034
:10050000E926000EEA22EFCF1CF01D6A1CBE1D6812
:1005100012501C24106E13501D20116EFB0EDBCFE9
:10052000E9FFFC0EDBCFEAFF10C0EEFF11C0EDFFCC
:10053000E552E7CFD9FF1200D9CFE6FFE1CFD9FFCF
:10054000FD0EDBCFE9FFFE0EDBCFEAFFEF500F0B16
:10055000106EFD0EDBCFE9FFFE0EDBCFEAFFEF50A2
:10056000F00BE83A0A0DF3501024E66EFD0EDBCFD7
:10057000E9FFFE0EDBCFEAFFE552E750EF6EFD0E1E
:10058000DBCFE9FFFE0EDBCFEAFFEF50630808E0A8
:10059000FD0EDBCFE9FFFE0EDBCFEAFFEF2801D037
:1005A000000EE66EFD0EDBCFE9FFFE0EDBCFEAFFAD
:1005B000E552E750EF6EFD0EDBCFE9FFFE0EDBCF1D
:1005C000EAFFEFCF13F00A0E146E0C6E13C007F0A3
:1005D000F5EC04F003C012F0FD0EDBCFE9FFFE0ED8
:1005E000DBCFEAFFEFCF10F00A0E116E0C6E10C0D9
:1005F00007F0F5EC04F00750100DF3501224E66EEE
:10060000FD0EDBCFE9FFFE0EDBCFEAFFE552E75040
:10061000EF6EE552E7CFD9FF1200D9CFE6FFE1CF69
:10062000D9FFFD0EDBCFE9FFFE0EDBCFEAFFEF5077
:100630000F0B106EFD0EDBCFE9FFFE0EDBCFEAFFE6
:10064000EF50F00BE83A0A0DF3501024E66EFD0E61
:10065000DBCFE9FFFE0EDBCFEAFFE552E750EF6E9E
:10066000FD0EDBCFE9FFFE0EDBCFEAFFEF5008E027
:10067000FD0EDBCFE9FFFE0EDBCFEAFFEF0401D07A
:10068000630EE66EFD0EDBCFE9FFFE0EDBCFEAFF69
:10069000E552E750EF6EFD0EDBCFE9FFFE0EDBCF3C
:1006A000EAFFEFCF13F00A0E146E0C6E13C007F0C2
:1006B000F5EC04F003C012F0FD0EDBCFE9FFFE0EF7
:1006C000DBCFEAFFEFCF10F00A0E116E0C6E10C0F8
:1006D00007F0F5EC04F00750100DF3501224E66E0D
:1006E000FD0EDBCFE9FFFE0EDBCFEAFFE552E75060
:1006F000EF6EE552E7CFD9FF1200D9CFE6FFE1CF89
:10070000D9FFFD0EDBCFE9FFFE0EDBCFEAFFEF5096
:100710000F0B106EFD0EDBCFE9FFFE0EDBCFEAFF05
:10072000EF50F00BE83A0A0DF3501024E66EFD0E80
:10073000DBCFE9FFFE0EDBCFEAFFE552E750EF6EBD
:10074000FD0EDBCFE9FFFE0EDBCFEAFFFC0EDB5038
:10075000EF26FD0EDBCFE9FFFE0EDBCFEAFFEFCF8A
:1007600013F00A0E146E0C6E13C007F0F5EC04F0D3
:1007700003C012F0FD0EDBCFE9FFFE0EDBCFEAFF78
:10078000EFCF10F00A0E116E0C6E10C007F0F5ECF2
:1007900004F00750100DF3501224E66EFD0EDBCF6F
:1007A000E9FFFE0EDBCFEAFFE552E750EF6EE552C0
:1007B000E7CFD9FF1200C70E9316C00E0F013917ED
:1007C000070E616EF19E956A3B6BF00E94163A1718
:1007D00092903891F28EF288F086F088F28AD40EE8
:1007E000D56E060ED66E0001676B686B7D0E696F65
:1007F000640EE66E000EE66E67C0E6FF2EDDE55283
:10080000E552E552610EE66E000EE66E68C0E6FF48
:1008100024DDE552E552E5520001080E6A6F010E33
:100820006B6F6C6F6D6B6E6B8198819A1200C3DF7A
:10083000FFD700016D6B640E6D5D16E2BF0E836E17
:100840006AC082FF6A916A436A5102E1080E6A6FC8
:10085000807081768188819A030EE66EAAEC04F09E
:10086000E55200016D2BE7D7F0B0F090F0B2F092B6
:100870008198819A120000016D6B640E6D5D16E225
:10088000BF0E836E6AC082FF6A916A436A5102E1B9
:10089000080E6A6F807081768198818A030EE66EF9
:1008A000AAEC04F0E55200016D2BE7D7F2B2F29208
:0608B0008198819A1200FC
:0A08B6004C0EF66E020EF76E000EF7
:1008C000F86E00010900F550746F0900F550756F5E
:1008D00003E1746701D03DD00900F5506F6F090046
:1008E000F550706F0900F550716F09000900F5505F
:1008F000E96E0900F550EA6E090009000900F5509B
:10090000726F0900F550736F09000900F6CF76F099
:10091000F7CF77F0F8CF78F06FC0F6FF70C0F7FF31
:1009200071C0F8FF0001725302E1735307E0090040
:10093000F550EE6E7207F8E27307F9D776C0F6FF4E
:1009400077C0F7FF78C0F8FF00017407000E755BF1
:04095000BFD71200FB
:0C095400FF0EE3501F6EEF0E01D0F30EFB
:10096000E76EE72EB1EF04F00C0E1E6EE76AE72E7D
:10097000B7EF04F01E2EB6EF04F01F2EAFEF04F019
:02098000120063
:0E098200036A026A100EE76ED890063607363A
:10099000023603360B50025C0C50035805E30B5033
:0E09A000025E0C50035A062AE72EF0D7120012
:0209AE00000E39
:1009B000F36E00EE00F0060E01D81200EA6002D0DD
:0E09C000EE6AFCD7F350E9601200EE6AFCD735
:0209CE0015EE24
:1009D00000F025EE00F0F86A0F9C5BEC04F003ECED
:0A09E00000F017EC04F0FBD7120042
:0609EA00036A080EE76E2F
:1009F000D890073603360C50035C02E3036E072AD7
:060A0000E72EF7D71200FB
:0A0A06003F065B4F666D7D077F6FB2
:020000040030CA
:0100010023DB
:010003003CC0
:010006008574
:00000001FF
